:100000000C9475000C949D000C949D000C949D0024
:100010000C949D000C949D000C949D000C949D00EC
:100020000C949D000C949D000C949D000C949D00DC
:100030000C949D000C949D000C949D000C949D00CC
:100040000C942C0A0C949D000C949C0A0C94760A37
:100050000C949D000C949D000C949D000C949D00AC
:100060000C949D000C949D0000000008000201000B
:10007000000304070000000000000000CDCCCC3DD0
:100080000AD7233C17B7D13877CC2B329595E62485
:100090001FB14F0A000020410000C84200401C462A
:1000A00020BCBE4CCA1B0E5AAEC59D740000000099
:1000B000250028002B0000000000240027002A0053
:1000C00004040404040404040202020202020303FE
:1000D0000303030301020408102040800102040806
:1000E0001020010204081020670C11241FBECFEF5E
:1000F000D8E0DEBFCDBF11E0A0E0B1E0ECE3F0E27C
:1001000002C005900D92AE34B107D9F722E0AEE4FB
:10011000B1E001C01D92A933B207E1F710E0C5E7D5
:10012000D0E004C02197FE010E94E50DC437D1073D
:10013000C9F70E94CE0A0C941C100C940000CF93B7
:10014000DF93EC0188819981DC01ED91FC910190B4
:10015000F081E02D64E270E00995009741F02FE115
:10016000FC01238321E02283DF91CF91089521E0D8
:100170002A83FACF90E0FC01EC52FF4F2491805487
:100180009F4FFC018491882399F090E0880F991F7C
:10019000FC01EA54FF4FA591B491FC01E455FF4FD7
:1001A000859194918FB7F894EC91E22BEC938FBFEB
:1001B000089590E0FC01E859FF4F2491FC01EC52B6
:1001C000FF4F3491FC01E054FF4FE491EE23C9F05E
:1001D000222339F0233001F1A8F4213019F1223023
:1001E00029F1F0E0EE0FFF1FE455FF4FA591B49108
:1001F0008FB7F894EC91611126C030953E233C9363
:100200008FBF08952730A9F02830C9F0243049F76E
:10021000809180008F7D03C0809180008F778093D4
:100220008000DFCF84B58F7784BDDBCF84B58F7D31
:10023000FBCF8091B0008F778093B000D2CF8091B8
:10024000B0008F7DF9CF3E2BDACFAF92BF92CF9225
:10025000DF92EF92FF920F931F93CF93DF936C0186
:100260007B018B01040F151FEB015E01AE18BF0867
:10027000C017D10759F06991D601ED91FC91019019
:10028000F081E02DC6010995892B79F7C501DF9131
:10029000CF911F910F91FF90EF90DF90CF90BF9083
:1002A000AF900895FC01538D448D252F30E0842FAD
:1002B00090E0821B930B541710F0CF96089501978E
:1002C0000895FC01918D828D981761F0A28DAE0F7B
:1002D000BF2FB11D5D968C91928D9F5F9F73928F02
:1002E00090E008958FEF9FEF0895FC01918D828D2E
:1002F000981731F0828DE80FF11D858D90E00895FB
:100300008FEF9FEF0895FC01918D228D892F90E052
:10031000805C9F4F821B91098F73992708958FE806
:1003200091E00E94830121E0892B09F420E0822FD3
:10033000089580E090E0892B29F00E948F018111BF
:100340000C9400000895FC01A48DA80FB92FB11DD5
:10035000A35ABF4F2C91848D90E001968F739927FB
:10036000848FA689B7892C93A089B1898C918370D9
:1003700080648C93938D848D981306C00288F389D2
:10038000E02D80818F7D80830895EF92FF920F93FF
:100390001F93CF93DF93EC0181E0888F9B8D8C8D31
:1003A00098131AC0E889F989808185FF15C09FB725
:1003B000F894EE89FF896083E889F98980818370E8
:1003C000806480839FBF81E090E0DF91CF911F9197
:1003D0000F91FF90EF900895F62E0B8D10E00F5FB8
:1003E0001F4F0F731127E02E8C8D8E110CC00FB68E
:1003F00007FCFACFE889F989808185FFF5CFCE0126
:100400000E94A301F1CFEB8DEC0FFD2FF11DE35AFC
:10041000FF4FF0829FB7F8940B8FEA89FB898081A8
:100420008062CFCFCF93DF93EC01888D8823B9F022
:10043000AA89BB89E889F9898C9185FD03C08081EF
:1004400086FD0DC00FB607FCF7CF8C9185FFF2CF6C
:10045000808185FFEDCFCE010E94A301E9CFDF911E
:10046000CF9108956F3FA9F0E62FE295EF7044E039
:10047000E49F90011124DC01ED91FC91E20FF31F48
:100480006F7082819381B6E06B9F800D911D112466
:10049000089590E080E00895982F80336CF08A33BF
:1004A00024F08F3524F08B3724F481E008958134D3
:1004B0001CF081E09B350CF080E00895FC01828502
:1004C00081110AC0A781B085CD01019690878783ED
:1004D0008C91818781E08287818508951F93CF93D6
:1004E000DF93EC01162F0E945E02811306C01A866C
:1004F00081E0DF91CF911F91089580E0FACF0F93B3
:100500001F93CF93DF938C01EB018991882369F0CE
:10051000C8010E945E02882379F0FE013197908124
:1005200098130DC0F8011286F0CF90E080E0DF91C3
:10053000CF911F910F91089582E090E0F8CF83E072
:1005400090E0F5CFCF93DF93EC01CE010E945E02E5
:100550008B304CF489305CF4882359F081E08E8331
:1005600090E080E00BC08D3011F08032B9F71A8630
:10057000ECCF8E81811105C081E090E0DF91CF91B9
:10058000089582E090E0FACFDC0152969C91529758
:10059000915084E0989F900111245096ED91FC9128
:1005A000E20FF31F228133812115310579F041815A
:1005B0008081481758F481E0840F818386E0489F4A
:1005C000200D311D11242115310521F460E070E06A
:1005D0008FEF0895B901892F8295807F840F089548
:1005E000DF92EF92FF920F931F93CF93DF93EC0173
:1005F0007B01D12C688979898A89D816E0F484E056
:10060000D89E80011124060F171FD80112966D91F4
:100610007C916115710541F0D701ED91FC9102804B
:10062000F381E02DC7010995F8011382128210822F
:100630001182D394DFCF1A8A8FEF8C8BC617D7071E
:1006400061F0D701ED91FC910280F381E02DC701AB
:100650000995D98BC88B84E08B8BDF91CF911F914B
:100660000F91FF90EF90DF900895CF92DF92EF927D
:10067000FF920F931F93CF93DF937C016B018A014D
:10068000FC01C081D1814F3F510509F0B0F4E881F0
:10069000F9810480F581E02D4B5F5F4FCE01099514
:1006A000009759F0FC010383DF91CF911F910F91C7
:1006B000FF90EF90DF90CF900895E881F98102805C
:1006C000F381E02DB601CE01099581E0F701828327
:1006D00090E080E0E9CF1F93CF93DF93EC01162FDA
:1006E0006A817B816115710589F04C815D81FB0117
:1006F00083818417150651F4440F551F4F5F5F4FD8
:10070000888199810E9435039B838A838A819B819A
:10071000009759F02C813D81A9014F5F5F4F5D83A8
:100720004C83820F931FFC011483DF91CF911F91A3
:1007300008959F92AF92BF92CF92DF92EF92FF9275
:100740000F931F93CF93DF9300D000D01F92CDB7AC
:10075000DEB78C010E945E02D82EF8011286F12CC1
:10076000E12C60EFC62EC8010E945E02F8011286DD
:10077000D81609F4B3C0811113C082E090E00F9045
:100780000F900F900F900F90DF91CF911F910F91CD
:10079000FF90EF90DF90CF90BF90AF909F90089523
:1007A0008C3509F099C0C8010E945E02882329F3A4
:1007B000E4E2F1E0853709F083C0F801128654E0E5
:1007C000952EB12CA12CC8010E945E028823A9F2AB
:1007D000813434F48053803130F083E090E0CFCF27
:1007E0008F7D8753F8CF44E0AA0CBB1C4A95E1F7F4
:1007F000A82AF80112869A949110E5CFC501985D58
:100800008115944020F47501F3E0FF22ACCFC501BF
:100810009C5D81159440A8F483E0B822B701762F3F
:100820006627770F770F6A297B2990E080E0019691
:10083000603871058105910540F4C8010E946B0381
:1008400092CFB50190E080E0F3CF1982262F2F736D
:1008500020682A8326E096958795779567952A954F
:10086000D1F76032710580F4606C6B835E01E4E067
:10087000AE0EB11CF50162915F01662309F473CFDE
:10088000C8010E946B03F6CF262F2F7320682B839D
:1008900086E0769567958A95E1F76031710538F4C1
:1008A000606E6C835E01F5E0AF0EB11CE3CF606853
:1008B0006C83CD825E0126E0A20EB11CDBCF3296A6
:1008C0009081992309F489CF8913F9CF81818823F5
:1008D00009F483CFF8011286682FAFCF828193810C
:1008E000892B19F484E090E04ACF90E080E047CF74
:1008F0006F927F928F929F92AF92BF92CF92DF9230
:10090000EF92FF920F931F93CF93DF93EC012A8115
:100910003B812C5F3F4F4C815D814430510588F510
:100920008901F90180E0942FB22FAE2FA21BA917E5
:1009300030F4F190A1E0F110A0E08A2BF6CF811104
:1009400020C082E0EB018C83FB01802F8B1B891779
:1009500028F4E80189918E018193F7CF640F751F08
:10096000FB011082DF91CF911F910F91FF90EF90CB
:10097000DF90CF90BF90AF909F908F907F906F90BF
:1009800008958B01F901E40FF51F10828881998188
:100990004C815D81DC011396ED91FC913A01E89464
:1009A00077F86901C60CD71C3097C1F0A381A61552
:1009B000170481F449017F01B4E0EB0EF11C8C14A3
:1009C0009D0429F1D401AD904D01D701BD907D0169
:1009D000AB14A9F30190F081E02DE6CF6A817B8111
:1009E0000E943503FC01A881B98113968D919C91D9
:1009F0001497918380831496FC93EE9313971B8234
:100A00001A8285E0E8018C83F983E883ABCF828189
:100A10008F5F8283F6CFDB01ED91FC91119702800D
:100A2000F381E02DBC01CD010994AF92BF92CF922A
:100A3000DF92EF92FF920F931F93CF93DF93EC011E
:100A40008B018C8180FF24C0A881B981FB01838147
:100A5000948130E020E00097D9F0A817B907D1F5CC
:100A6000F8016081718112968C91129781501296D3
:100A70008C93129781110CC08D919C911197211527
:100A8000310529F1F90191838083CD010E940B0585
:100A90008C81807631F1209721F1F8805801F5E1C1
:100AA000AF0EB11C8FEFF816D1F06F2DC5010E946B
:100AB00032026C01FC01E580B8010E941505F801C5
:100AC000818DF6018083F801F18EFE2CEBCF9483AB
:100AD0008383DBCF9C01FC0180819181BCCFF882B4
:100AE000F9821C82DF91CF911F910F91FF90EF90BF
:100AF000DF90CF90BF90AF9008950F931F93CF9347
:100B0000DF93EC01088119818B819C81009749F06A
:100B1000FC01208131813C832B83B8010E940B05AD
:100B2000F3CF68817981CE010596DF91CF911F9136
:100B30000F910C94F0029F92AF92BF92CF92DF92EE
:100B4000EF92FF920F931F93CF93DF938A01452B70
:100B500009F468C0E9016B016596FC016081CE0172
:100B60000E943202FC01BB24BA94892B09F0B580A3
:100B70007601E894F7F8AA24A3946701C00ED11E69
:100B800099249394309709F44DC0AA2009F43FC0EA
:100B90008481843069F0853049F1823079F5DF0154
:100BA0000D900020E9F71197CD018E1B9F0B07C018
:100BB0000190F081E02D90E080E0309781F79F7701
:100BC000E816F90621F5D801AC15BD05E1F46B2D49
:100BD000CE01DF91CF911F910F91FF90EF90DF90A9
:100BE000CF90BF90AF909F900C943202A081B181C2
:100BF000FD01349613968C9190E0E2CF90E080E076
:100C0000F0E0E0E0DDCF9D9181919817E9F2A92411
:100C10006B2DCE010E943202FC01892B09F4B2CF68
:100C2000B580B0CF90E080E0DF91CF911F910F9120
:100C3000FF90EF90DF90CF90BF90AF909F9008957E
:100C4000CF93FC0120813181C9014A9642815381B1
:100C500064817581009711F4C0E017C0D9015E96D8
:100C6000EC91E03211F090E080E00097A9F30E944F
:100C70009B05FC01892B81F394819A30E1F040F4CB
:100C8000992351F39630A9F0C1E08C2FCF910895AC
:100C90009C3089F09E30C1F7C1E020E030E0A9012E
:100CA00060817181828193810E94940C8111EDCFCA
:100CB000D3CFC081EACFC1E080819181A281B3818D
:100CC000892B8A2B8B2B09F7C7CFCF93DC01FB0134
:100CD00001900020E9F73197E61BF70BFF775E964E
:100CE0008C915E978032B1F4CD014A96CF2FCF77A9
:100CF000CF7730E020E0009739F09D01AB016E2FF7
:100D00007C2F0E949B059C0181E0232B09F480E04D
:100D1000CF91089590E080E0E9CFBF92CF92DF922B
:100D2000EF92FF920F931F93CF93DF93EC01198DF6
:100D30001F3F81F0612F45960E943202FC018081A5
:100D4000898F309709F477C014828FEF8583BF01B4
:100D5000812F76C06C0135E0C30ED11CE880F9808C
:100D60008F89882341F0C6010E94C402E62FF72F25
:100D7000182F309749F71F89988D191324C0103107
:100D800009F459C0110F6D897E89D701ED91FC914D
:100D9000B4E01B9FA0011124C616D70609F044C079
:100DA0000190F081E02DBA01C7010995009709F47F
:100DB00042C020E1F601DC0101900D922A95E1F795
:100DC0009E8B8D8B188F0D891E898F8921E0280FAE
:100DD0002F8BE4E08E9FC0011124080F191F90E1B2
:100DE000B92E203111F48FE0B82EF6E0BF9EB0018D
:100DF0001124D701ED91FC910190F081E02DC70104
:100E00000995F80193838283892B09F4B12CD801C9
:100E1000BC9211961C92012B71F0C6010E94C40273
:100E2000E62FF72F182F8DCF0480F581E02DC70115
:100E30000995009729F681E08A8360E070E08FEFE2
:100E4000DF91CF911F910F91FF90EF90DF90CF90A6
:100E5000BF9008954F925F926F927F928F929F9270
:100E6000AF92BF92CF92DF92EF92FF920F931F93B8
:100E7000CF93DF93EC018B01D42E0E94A2027C0160
:100E8000892B09F03FC0CE010E945E02863609F42C
:100E900077C1F4F4873229F08B3531F1823209F0D1
:100EA00076C11D821C828A819B81892B31F48881C5
:100EB00099810E949F009B838A83CE010E9499039F
:100EC0007C01892BF9F4B801CE010E9478041AC084
:100ED000843709F43BC18B3709F46CC08E3609F0B6
:100EE00056C162E471E039C180E4F80184830115E0
:100EF000110519F08FEF80838183D11015C055E063
:100F0000E52EF12CC701DF91CF911F910F91FF903A
:100F1000EF90DF90CF90BF90AF909F908F907F9099
:100F20006F905F904F9008951A86CE010E94A202A2
:100F3000009739F56DE5CE010E946E028111E2CF76
:100F4000DA948B849C84C4010E948D06C82E5B01B8
:100F5000672B21F444E0E42EF12CD4CFF801618119
:100F60006F3F89F0C40145960E943202FC01C582A0
:100F7000F801C1824D2DB501CE010E942A070097CC
:100F800021F07C01BFCF8083F4CFCE010E94A2026A
:100F90000097B9F76DE5CE010E946E028111B2CFC4
:100FA0006CE2CE010E946E028111CBCF83E0E82E6D
:100FB000F12CA8CF80E2F80184830115110519F006
:100FC0008FEF80838183DD2009F499CF1A86CE01CB
:100FD0000E94A2020097A9F66DE7CE010E946E0260
:100FE000811190CFDA941D821C828A819B81892B8A
:100FF00031F4888199810E949F009B838A83CE016E
:101000000E945E028732E1F08232D1F0CE010E946E
:101010005E02F82E0E944C02882341F21A866F2D40
:10102000CE010E946B03CE010E945E02F82E0E9448
:101030004C028111F3CF8A819B81892B41F48ACFA5
:10104000CE010E9499037C01892B09F05BCFCE0170
:101050000E94A2027C01892B09F054CF6AE3CE01E1
:101060000E946E02882309F4A1CFEA81FB818C8162
:101070009D81E80FF91F14826C817D817F778B84BD
:101080009C848A819B810496272F2F77FC2DF078F2
:10109000CF2EC22AE894C7F89401AC017C2DC80178
:1010A0000E949B057C01009709F04CC0C4010E947E
:1010B0008D06682E5B01672B09F44CCFC4010E949A
:1010C0008D06782E962FE92EF72EE114F10409F4FF
:1010D00041CFF5017582F80161816F3F89F1C4014B
:1010E00045960E943202FC016582F8017182B501C9
:1010F000CE010E9478044D2DB701CE010E942A072F
:101100007C01892B09F0FECECE010E94A2027C0157
:10111000892B09F0F7CE6DE7CE010E946E02811196
:10112000F1CE6CE2CE010E946E02882309F43ECF1C
:10113000CE010E94A2027C01892B09F454CFE2CE99
:101140006082D4CFB4010E941505D5CF86E0F801A6
:10115000848381E0808367E371E0CE01DF91CF91EA
:101160001F910F91FF90EF90DF90CF90BF90AF90C5
:101170009F908F907F906F905F904F900C947F0224
:1011800086E0F801848310826CE371E0E6CFCE0143
:101190000E945E025E01FDE0AF0EB11CD12C9A2CC4
:1011A000CB2C803374F08A3374F42FE3D21699F089
:1011B0001A86D394F50181935F01CE010E945E02ED
:1011C000F0CF8B3291F393ED980F923070F3982F0C
:1011D0009F7D953451F3FE01ED0DF11D15868D8532
:1011E0008B32E1F12E96DD24D3948D3219F0C92D86
:1011F000DC2DD12C888190ED980F9A3018F08E322A
:1012000009F0D4CE60E070E0CB01FE01219130ED19
:10121000832E820E39E0381518F16A3949E97407CE
:10122000840749E1940730F5AAE0B0E09B01AC01E6
:101230000E94DA0D912CB12CA12C2401350140948F
:10124000509460947094461657066806790690F09C
:10125000680D791D8A1D9B1DEF01D7CF2E96C9CF32
:10126000211108C0DD2059F161307105810550E878
:101270009507A0F0B12CBAE04B2E512C612C712CAB
:1012800061157105F0E88F07910508F1A30192013E
:101290000E94B80DCA01B901B394F2CF2CE0F80155
:1012A00024839B01AC0188279927DC01821B930BC7
:1012B000A40BB50B80839183A283B38323CE2AE052
:1012C000F801248360837183828393831BCEDE01C4
:1012D000299130ED320F3A3010F4B394F8CF2E321A
:1012E000D9F4FD013196DF013196CC91C053CA305B
:1012F00098F46C3C2CEC72072CE08207910598F76F
:10130000AAE0B0E09B01AC010E94DA0D6C0F711DE8
:10131000811D911DBA94E7CF2C912F7DD0E0C0E0C4
:10132000253409F052C011962C9111972D32B1F548
:101330001296CC24C394FD01D0E0C0E02B2D0B2CE1
:10134000000C330BAAE09A2EDF01A19040ED4A0D6C
:101350004A30B0F59C9EA0019D9E500D1124CA2DCF
:10136000AA0CDD0BE097C40FD51FAE01420F531F2F
:10137000473251054CF3CC20C1F060E070E080E0D2
:1013800090E8D11003C060E070E0CB012EE0F801DE
:1013900024836083718382839383B4CD2B3219F0CD
:1013A0001196C12CC8CF1296FCCF60E070E080E8A7
:1013B0009FEFD110EBCF60E070E080E89FE7E6CFD1
:1013C000CC2019F0D195C195D1092C912111EECDE8
:1013D000CB0DD11DB7FCDA950E94990C44E9842EFF
:1013E00040E0942E1C161D063CF0D195C195D10904
:1013F0005CE7852E50E0952EB12CA12C2097E9F0CA
:1014000036E0A316B104A9F0C0FF0DC0F501EE0F40
:10141000FF1FEE0FFF1FE80DF91D25913591459136
:1014200054910E94FA0CD595C7955FEFA51AB50A9D
:10143000E5CF60E070E080EC9FE7DD2009F4A6CF07
:101440009058A4CFCB01BA010C941F0FCB010C9480
:10145000960ECB010C94FA0D1F920F920FB60F92BD
:1014600011242F933F938F939F93AF93BF938091BA
:10147000310290913202A0913302B0913402309146
:10148000300223E0230F2D3758F50196A11DB11D21
:10149000209330028093310290933202A093330262
:1014A000B093340280912C0290912D02A0912E02D3
:1014B000B0912F020196A11DB11D80932C02909333
:1014C0002D02A0932E02B0932F02BF91AF919F9156
:1014D0008F913F912F910F900FBE0F901F901895F5
:1014E00026E8230F0296A11DB11DD2CF1F920F92A5
:1014F0000FB60F9211242F933F934F935F936F93E7
:101500007F938F939F93AF93BF93EF93FF938FE856
:1015100091E00E94A301FF91EF91BF91AF919F9144
:101520008F917F916F915F914F913F912F910F908C
:101530000FBE0F901F9018951F920F920FB60F922B
:1015400011242F938F939F93EF93FF93E0919F012B
:10155000F091A0018081E091A501F091A60182FDAA
:101560001BC090818091A8018F5F8F732091A9018A
:10157000821741F0E091A801F0E0E157FE4F958F0E
:101580008093A801FF91EF919F918F912F910F90E0
:101590000FBE0F901F9018958081F4CFCF93DF93EB
:1015A000CDB7DEB7CD56D1090FB6F894DEBF0FBE6A
:1015B000CDBF789484B5826084BD84B5816084BDDC
:1015C00085B5826085BD85B5816085BD80916E00E1
:1015D000816080936E001092810080918100826012
:1015E000809381008091810081608093810080914F
:1015F00080008160809380008091B100846080933E
:10160000B1008091B00081608093B00080917A0039
:10161000846080937A0080917A00826080937A005F
:1016200080917A00816080937A0080917A0080684E
:1016300080937A001092C10080E10E94BA0081E19B
:101640000E94BA0060E080E10E94D90060E081E180
:101650000E94D900E0919F01F091A00182E0808377
:10166000E0919B01F0919C011082E0919D01F0912D
:101670009E018FEC80831092A701E091A301F0916D
:10168000A40186E08083E091A101F091A201808114
:1016900080618083E091A101F091A2018081886046
:1016A0008083E091A101F091A20180818068808314
:1016B000E091A101F091A20180818F7D808330E0D3
:1016C000C32E31E0D32E4EE4E42EF12CEC0EFD1EA1
:1016D00085E0E80EF11C5EE4A52EB12CAC0EBD1E1B
:1016E0009AE1A90EB11C2EE4822E21E0922E84E014
:1016F000582E77247A9492E0692E8FE891E00E9428
:101700008301892B09F4C8C08FE891E00E94610130
:10171000E0918E018A3009F0CCC0F0E0E25BFE4F30
:10172000108210928E016096DFAECEAE6097619609
:101730001FAE619763961FAE1EAE6397A596FFAE70
:10174000EEAEA597A6961FAEA697A7965FAEA797F3
:10175000A8967FAEA897AD961FAEAD97AE967FAE1A
:10176000AE9760E071E0C7010E94F00261961FAE83
:10177000619760960EAD1FAD609763968EAD9FAD7D
:101780006397009759F0FC012081318163963FAF48
:101790002EAF6397B8010E940B05EFCFAD961FAE39
:1017A000AD978EE490E08C0F9D1F9A8389831C82F5
:1017B0001B821E821D821F82998688861B869D87BA
:1017C0008C874AE0B501CE0101960E942A078C0160
:1017D000892B51F48A85882339F0AD968FADAD976A
:1017E00083FF02C003E010E08B819C81009731F001
:1017F000E981FA81608171810E940B05012B09F05A
:1018000046C067E471E0CE01825B9F4F0E9465068F
:101810008823B9F0EEE4F0E0EC0FFD1FFA83E983D2
:1018200087E491E09C838B836D828E8180788068D1
:101830008E83CE0101960E942006682F80E10E94CF
:10184000D9006AE471E0CE01825B9F4F0E94650679
:101850008823B9F08EE490E08C0F9D1F9A838983D2
:101860008AE491E09C838B836D828E81807880688E
:101870008E83CE0101960E942006682F81E10E948E
:10188000D900CE01825B9F4F0E947D0536CFCE01ED
:10189000825B9F4F0E947D0580E090E0892B09F4D8
:1018A00026CF0E948F01882309F41DCF0E940000DB
:1018B0001ACFEF3348F491E09E0F90938E01F0E041
:1018C000E25BFE4F808319CF10928E0116CFEFE8B6
:1018D000F1E01382128288EE93E0A0E0B0E084830E
:1018E0009583A683B78386E191E09183808385EC1D
:1018F00090E09587848784EC90E09787868780ECDA
:1019000090E0918B808B81EC90E0938B828B82ECCA
:1019100090E0958B848B86EC90E0978B868B118E74
:10192000128E138E148E08950E94D60C08F481E056
:101930000895E89409C097FB3EF4909580957095C2
:1019400061957F4F8F4F9F4F9923A9F0F92F96E90B
:10195000BB279395F695879577956795B795F11180
:10196000F8CFFAF4BB0F11F460FF1BC06F5F7F4F1D
:101970008F4F9F4F16C0882311F096E911C077232F
:1019800021F09EE8872F762F05C0662371F096E838
:10199000862F70E060E02AF09A95660F771F881F07
:1019A000DAF7880F9695879597F90895990F0008AB
:1019B000550FAA0BE0E8FEEF16161706E807F90721
:1019C000C0F012161306E407F50798F0621B730BBC
:1019D000840B950B39F40A2661F0232B242B252B3D
:1019E00021F408950A2609F4A140A6958FEF811DE0
:1019F000811D08950E940D0D0C947E0D0E94700DA6
:101A000038F00E94770D20F0952311F00C94670DAB
:101A10000C946D0D11240C94B20D0E948F0D70F377
:101A2000959FC1F3950F50E0551F629FF001729F83
:101A3000BB27F00DB11D639FAA27F00DB11DAA1F92
:101A4000649F6627B00DA11D661F829F2227B00DDF
:101A5000A11D621F739FB00DA11D621F839FA00D6A
:101A6000611D221F749F3327A00D611D231F849FBA
:101A7000600D211D822F762F6A2F11249F57504011
:101A80009AF0F1F088234AF0EE0FFF1FBB1F661F8C
:101A9000771F881F91505040A9F79E3F510580F055
:101AA0000C94670D0C94B20D5F3FE4F3983ED4F3B1
:101AB000869577956795B795F795E7959F5FC1F7F9
:101AC000FE2B880F911D9695879597F9089597F9A4
:101AD0009F6780E870E060E008959FEF80EC0895D4
:101AE00000240A94161617061806090608950024FD
:101AF0000A9412161306140605060895092E039477
:101B0000000C11F4882352F0BB0F40F4BF2B11F4EA
:101B100060FF04C06F5F7F4F8F4F9F4F089557FD49
:101B20009058440F551F59F05F3F71F04795880F4B
:101B300097FB991F61F09F3F79F0879508951216E2
:101B400013061406551FF2CF4695F1DF08C016168E
:101B500017061806991FF1CF86957105610508943F
:101B60000895E894BB2766277727CB0197F9089556
:101B7000A1E21A2EAA1BBB1BFD010DC0AA1FBB1F91
:101B8000EE1FFF1FA217B307E407F50720F0A21B03
:101B9000B30BE40BF50B661F771F881F991F1A9470
:101BA00069F760957095809590959B01AC01BD019A
:101BB000CF0108950E94EB0DA59F900DB49F900D4D
:101BC000A49F800D911D11240895EE0FFF1F059015
:101BD000F491E02D0994A29FB001B39FC001A39F8F
:101BE000700D811D1124911DB29F700D811D112456
:101BF000911D08950F931F93CF93DF93823091052A
:101C000010F482E090E0E0913702F091380230E089
:101C100020E0B0E0A0E0309799F42115310509F4F7
:101C20004AC0281B390B24303105D8F58A819B81A5
:101C30006115710589F1FB0193838283FE0111C057
:101C4000408151810281138148175907E0F04817FC
:101C5000590799F4109761F012960C931297139606
:101C60001C933296CF01DF91CF911F910F91089570
:101C70000093370210933802F4CF2115310551F04B
:101C80004217530738F0A901DB019A01BD01DF01BA
:101C9000F801C1CFEF01F9CF90933802809337025A
:101CA000CDCFFE01E20FF31F8193919322503109B2
:101CB00039832883D7CF2091350230913602232BE8
:101CC00041F42091040130910501309336022093B4
:101CD000350220910201309103012115310541F4B3
:101CE0002DB73EB74091060150910701241B350BDB
:101CF000E0913502F0913602E217F307A0F42E1BB3
:101D00003F0B2817390778F0AC014E5F5F4F24175F
:101D1000350748F04E0F5F1F50933602409335024F
:101D2000819391939FCFF0E0E0E09CCFCF93DF933E
:101D30000097E9F0FC01329713821282A0913702DA
:101D4000B0913802ED0130E020E01097A1F420813D
:101D50003181820F931F209135023091360228176E
:101D6000390709F061C0F0933602E0933502DF9144
:101D7000CF910895EA01CE17DF07E8F54A815B812C
:101D80009E0141155105B1F7E901FB83EA834991B1
:101D90005991C40FD51FEC17FD0761F48081918123
:101DA0000296840F951FE90199838883828193812C
:101DB0009B838A83F0E0E0E012968D919C911397CB
:101DC0000097B9F52D913C911197CD010296820FA4
:101DD000931F20913502309136022817390739F6C2
:101DE000309751F51092380210923702B0933602B4
:101DF000A0933502BCCFD383C28340815181840F2D
:101E0000951FC817D90761F44E5F5F4F888199818C
:101E1000480F591F518340838A819B81938382831A
:101E20002115310509F0B0CFF0933802E093370265
:101E30009ECFFD01DC01C0CF13821282D7CFB0E06C
:101E4000A0E0E5E2FFE00C94E70F8C01009751F46D
:101E5000CB010E94FA0D8C01C801CDB7DEB7E0E1DD
:101E60000C940310FC01E60FF71F9C01225031096E
:101E7000E217F30708F49DC0D901CD91DC911197C9
:101E8000C617D70798F0C530D10530F3CE010497B7
:101E90008617970708F3C61BD70B2297C193D193D8
:101EA0006D937C93CF010E94960ED6CF5B01AC1A46
:101EB000BD0A4C018C0E9D1EA0913702B0913802D4
:101EC000512C412CF12CE12C109731F580913502E9
:101ED000909136028815990509F05CC046165706A0
:101EE00008F058C08091020190910301009741F4DD
:101EF0008DB79EB74091060150910701841B950B49
:101F0000E817F90708F055C0F0933602E093350260
:101F1000F90171836083A0CF8D919C9111971296E6
:101F20006C90129713967C901397A815B90559F5E4
:101F30006C0142E0C40ED11CCA14DB0420F1AC01D8
:101F40004A195B09DA011296159780F06282738252
:101F500051834083D9016D937C93E114F10471F0B6
:101F6000D7011396FC93EE93129776CF22968C0F9F
:101F70009D1FF90191838083F301EFCFF093380225
:101F8000E093370269CF4816590608F42C017D0109
:101F9000D3019ACFCB010E94FA0D7C01009749F042
:101FA000AE01B8010E94DC0FC8010E94960E8701A5
:101FB00053CF10E000E050CFFB01DC0102C00190E4
:101FC0000D9241505040D8F708952F923F924F9272
:101FD0005F926F927F928F929F92AF92BF92CF92B9
:101FE000DF92EF92FF920F931F93CF93DF93CDB7C2
:101FF000DEB7CA1BDB0B0FB6F894DEBF0FBECDBF3A
:1020000009942A88398848885F846E847D848C840A
:102010009B84AA84B984C884DF80EE80FD800C8113
:102020001B81AA81B981CE0FD11D0FB6F894DEBFF6
:0C2030000FBECDBFED010895F894FFCF66
:10203C000C0100003902800000000000290A260A69
:10204C00220A00000000C501250152011202830181
:10205C00610175012F2F272722225C5C6208660C18
:10206C006E0A720D740900747275650066616C738A
:0E207C0065006E756C6C00413200413300004F
:00000001FF
